{
  "_format": "hh-sol-artifact-1",
  "contractName": "ChatRoom",
  "sourceName": "contracts/ChatRoom.sol",
  "abi": [
    {
      "inputs": [],
      "stateMutability": "nonpayable",
      "type": "constructor"
    },
    {
      "inputs": [],
      "name": "EmptyMessage",
      "type": "error"
    },
    {
      "inputs": [],
      "name": "InvalidSignature",
      "type": "error"
    },
    {
      "inputs": [],
      "name": "MessageDoesntExist",
      "type": "error"
    },
    {
      "anonymous": false,
      "inputs": [
        {
          "indexed": true,
          "internalType": "uint256",
          "name": "id",
          "type": "uint256"
        },
        {
          "indexed": true,
          "internalType": "address",
          "name": "likedBy",
          "type": "address"
        },
        {
          "indexed": true,
          "internalType": "address",
          "name": "author",
          "type": "address"
        }
      ],
      "name": "MessageLiked",
      "type": "event"
    },
    {
      "anonymous": false,
      "inputs": [
        {
          "indexed": true,
          "internalType": "uint256",
          "name": "id",
          "type": "uint256"
        },
        {
          "indexed": true,
          "internalType": "address",
          "name": "author",
          "type": "address"
        }
      ],
      "name": "MessageSent",
      "type": "event"
    },
    {
      "inputs": [],
      "name": "getLast10Messages",
      "outputs": [
        {
          "components": [
            {
              "internalType": "uint256",
              "name": "timestamp",
              "type": "uint256"
            },
            {
              "internalType": "uint256",
              "name": "likes",
              "type": "uint256"
            },
            {
              "internalType": "uint256",
              "name": "id",
              "type": "uint256"
            },
            {
              "internalType": "string",
              "name": "content",
              "type": "string"
            },
            {
              "internalType": "address",
              "name": "author",
              "type": "address"
            }
          ],
          "internalType": "struct ChatRoom.Message[10]",
          "name": "",
          "type": "tuple[10]"
        }
      ],
      "stateMutability": "view",
      "type": "function"
    },
    {
      "inputs": [
        {
          "internalType": "uint256",
          "name": "_id",
          "type": "uint256"
        }
      ],
      "name": "likeMessage",
      "outputs": [],
      "stateMutability": "nonpayable",
      "type": "function"
    },
    {
      "inputs": [],
      "name": "nextId",
      "outputs": [
        {
          "internalType": "uint256",
          "name": "",
          "type": "uint256"
        }
      ],
      "stateMutability": "view",
      "type": "function"
    },
    {
      "inputs": [
        {
          "internalType": "string",
          "name": "content",
          "type": "string"
        },
        {
          "internalType": "bytes",
          "name": "signature",
          "type": "bytes"
        }
      ],
      "name": "sendMessage",
      "outputs": [],
      "stateMutability": "nonpayable",
      "type": "function"
    }
  ],
  "bytecode": "0x61014060405260016000553480156200001757600080fd5b506040518060400160405280600781526020017f43686174426f78000000000000000000000000000000000000000000000000008152506040518060400160405280600181526020017f310000000000000000000000000000000000000000000000000000000000000081525060008280519060200120905060008280519060200120905060007f8b73c3c69bb8fe3d512ecc4cf759cc79239f7b179b0ffacaa9a75d522b39400f90508260e081815250508161010081815250504660a08181525050620000ed8184846200013c60201b60201c565b608081815250503073ffffffffffffffffffffffffffffffffffffffff1660c08173ffffffffffffffffffffffffffffffffffffffff1681525050806101208181525050505050505062000250565b6000838383463060405160200162000159959493929190620001f3565b6040516020818303038152906040528051906020012090509392505050565b6000819050919050565b6200018d8162000178565b82525050565b6000819050919050565b620001a88162000193565b82525050565b600073ffffffffffffffffffffffffffffffffffffffff82169050919050565b6000620001db82620001ae565b9050919050565b620001ed81620001ce565b82525050565b600060a0820190506200020a600083018862000182565b62000219602083018762000182565b62000228604083018662000182565b6200023760608301856200019d565b620002466080830184620001e2565b9695505050505050565b60805160a05160c05160e05161010051610120516118f5620002a0600039600061091a0152600061095c0152600061093b01526000610870015260006108c6015260006108ef01526118f56000f3fe608060405234801561001057600080fd5b506004361061004c5760003560e01c80634baeb4db1461005157806361b8ce8c1461006d578063cd1171c41461008b578063f6284a9a146100a9575b600080fd5b61006b60048036038101906100669190610f0d565b6100c5565b005b61007561036d565b6040516100829190610f49565b60405180910390f35b610093610373565b6040516100a09190611179565b60405180910390f35b6100c360048036038101906100be9190611256565b610540565b005b6000600160008381526020019081526020016000206040518060a001604052908160008201548152602001600182015481526020016002820154815260200160038201805461011390611306565b80601f016020809104026020016040519081016040528092919081815260200182805461013f90611306565b801561018c5780601f106101615761010080835404028352916020019161018c565b820191906000526020600020905b81548152906001019060200180831161016f57829003601f168201915b505050505081526020016004820160009054906101000a900473ffffffffffffffffffffffffffffffffffffffff1673ffffffffffffffffffffffffffffffffffffffff1673ffffffffffffffffffffffffffffffffffffffff16815250509050600073ffffffffffffffffffffffffffffffffffffffff16816080015173ffffffffffffffffffffffffffffffffffffffff161415610258576040517f998c3a9600000000000000000000000000000000000000000000000000000000815260040160405180910390fd5b80602001805161026790611367565b908181525050806001600084815260200190815260200160002060008201518160000155602082015181600101556040820151816002015560608201518160030190805190602001906102bb929190610db7565b5060808201518160040160006101000a81548173ffffffffffffffffffffffffffffffffffffffff021916908373ffffffffffffffffffffffffffffffffffffffff160217905550905050806080015173ffffffffffffffffffffffffffffffffffffffff163373ffffffffffffffffffffffffffffffffffffffff1682604001517fb02eb01111217c9df517515cdcbdd4156f24da409ecaab6f56c70c1fcb2b0ab260405160405180910390a45050565b60005481565b61037b610e3d565b610383610e3d565b60016000541415610397578091505061053d565b6000600a60016000546103aa91906113b0565b106103b657600a6103c6565b60016000546103c591906113b0565b5b905060005b8181101561053657600160008260016000546103e791906113b0565b6103f191906113b0565b81526020019081526020016000206040518060a001604052908160008201548152602001600182015481526020016002820154815260200160038201805461043890611306565b80601f016020809104026020016040519081016040528092919081815260200182805461046490611306565b80156104b15780601f10610486576101008083540402835291602001916104b1565b820191906000526020600020905b81548152906001019060200180831161049457829003601f168201915b505050505081526020016004820160009054906101000a900473ffffffffffffffffffffffffffffffffffffffff1673ffffffffffffffffffffffffffffffffffffffff1673ffffffffffffffffffffffffffffffffffffffff16815250508382600a8110610523576105226113e4565b5b60200201819052508060010190506103cb565b5081925050505b90565b600084849050141561057e576040517fbb1b658000000000000000000000000000000000000000000000000000000000815260040160405180910390fd5b60006105ea7f8f19972ac558ebd54f61700e7ba902d759413c79c4cda78ec1b76109198deea23387876040516105b5929190611452565b60405180910390206040516020016105cf93929190611493565b6040516020818303038152906040528051906020012061082b565b9050600061063c8285858080601f016020809104026020016040519081016040528093929190818152602001838380828437600081840152601f19601f82011690508083019250505050505050610845565b90503373ffffffffffffffffffffffffffffffffffffffff168173ffffffffffffffffffffffffffffffffffffffff16146106a3576040517f8baa579f00000000000000000000000000000000000000000000000000000000815260040160405180910390fd5b60008054905060006040518060a001604052804281526020016000815260200183815260200189898080601f016020809104026020016040519081016040528093929190818152602001838380828437600081840152601f19601f8201169050808301925050505050505081526020013373ffffffffffffffffffffffffffffffffffffffff1681525090508060016000848152602001908152602001600020600082015181600001556020820151816001015560408201518160020155606082015181600301908051906020019061077d929190610db7565b5060808201518160040160006101000a81548173ffffffffffffffffffffffffffffffffffffffff021916908373ffffffffffffffffffffffffffffffffffffffff16021790555090505060008081546107d690611367565b919050819055503373ffffffffffffffffffffffffffffffffffffffff16827f65095a72c3522c47dd7ec14e6af04b2faa2955e46bb286d544dad8c82809edd260405160405180910390a35050505050505050565b600061083e61083861086c565b83610986565b9050919050565b600080600061085485856109b9565b9150915061086181610a3c565b819250505092915050565b60007f000000000000000000000000000000000000000000000000000000000000000073ffffffffffffffffffffffffffffffffffffffff163073ffffffffffffffffffffffffffffffffffffffff161480156108e857507f000000000000000000000000000000000000000000000000000000000000000046145b15610915577f00000000000000000000000000000000000000000000000000000000000000009050610983565b6109807f00000000000000000000000000000000000000000000000000000000000000007f00000000000000000000000000000000000000000000000000000000000000007f0000000000000000000000000000000000000000000000000000000000000000610c11565b90505b90565b6000828260405160200161099b929190611542565b60405160208183030381529060405280519060200120905092915050565b6000806041835114156109fb5760008060006020860151925060408601519150606086015160001a90506109ef87828585610c4b565b94509450505050610a35565b604083511415610a2c576000806020850151915060408501519050610a21868383610d58565b935093505050610a35565b60006002915091505b9250929050565b60006004811115610a5057610a4f611579565b5b816004811115610a6357610a62611579565b5b1415610a6e57610c0e565b60016004811115610a8257610a81611579565b5b816004811115610a9557610a94611579565b5b1415610ad6576040517f08c379a0000000000000000000000000000000000000000000000000000000008152600401610acd90611605565b60405180910390fd5b60026004811115610aea57610ae9611579565b5b816004811115610afd57610afc611579565b5b1415610b3e576040517f08c379a0000000000000000000000000000000000000000000000000000000008152600401610b3590611671565b60405180910390fd5b60036004811115610b5257610b51611579565b5b816004811115610b6557610b64611579565b5b1415610ba6576040517f08c379a0000000000000000000000000000000000000000000000000000000008152600401610b9d90611703565b60405180910390fd5b600480811115610bb957610bb8611579565b5b816004811115610bcc57610bcb611579565b5b1415610c0d576040517f08c379a0000000000000000000000000000000000000000000000000000000008152600401610c0490611795565b60405180910390fd5b5b50565b60008383834630604051602001610c2c9594939291906117b5565b6040516020818303038152906040528051906020012090509392505050565b6000807f7fffffffffffffffffffffffffffffff5d576e7357a4501ddfe92f46681b20a08360001c1115610c86576000600391509150610d4f565b601b8560ff1614158015610c9e5750601c8560ff1614155b15610cb0576000600491509150610d4f565b600060018787878760405160008152602001604052604051610cd59493929190611824565b6020604051602081039080840390855afa158015610cf7573d6000803e3d6000fd5b505050602060405103519050600073ffffffffffffffffffffffffffffffffffffffff168173ffffffffffffffffffffffffffffffffffffffff161415610d4657600060019250925050610d4f565b80600092509250505b94509492505050565b60008060007f7fffffffffffffffffffffffffffffffffffffffffffffffffffffffffffffff60001b841690506000601b60ff8660001c901c610d9b9190611869565b9050610da987828885610c4b565b935093505050935093915050565b828054610dc390611306565b90600052602060002090601f016020900481019282610de55760008555610e2c565b82601f10610dfe57805160ff1916838001178555610e2c565b82800160010185558215610e2c579182015b82811115610e2b578251825591602001919060010190610e10565b5b509050610e399190610e6b565b5090565b604051806101400160405280600a905b610e55610e88565b815260200190600190039081610e4d5790505090565b5b80821115610e84576000816000905550600101610e6c565b5090565b6040518060a0016040528060008152602001600081526020016000815260200160608152602001600073ffffffffffffffffffffffffffffffffffffffff1681525090565b600080fd5b600080fd5b6000819050919050565b610eea81610ed7565b8114610ef557600080fd5b50565b600081359050610f0781610ee1565b92915050565b600060208284031215610f2357610f22610ecd565b5b6000610f3184828501610ef8565b91505092915050565b610f4381610ed7565b82525050565b6000602082019050610f5e6000830184610f3a565b92915050565b6000600a9050919050565b600081905092915050565b6000819050919050565b610f8d81610ed7565b82525050565b600081519050919050565b600082825260208201905092915050565b60005b83811015610fcd578082015181840152602081019050610fb2565b83811115610fdc576000848401525b50505050565b6000601f19601f8301169050919050565b6000610ffe82610f93565b6110088185610f9e565b9350611018818560208601610faf565b61102181610fe2565b840191505092915050565b600073ffffffffffffffffffffffffffffffffffffffff82169050919050565b60006110578261102c565b9050919050565b6110678161104c565b82525050565b600060a0830160008301516110856000860182610f84565b5060208301516110986020860182610f84565b5060408301516110ab6040860182610f84565b50606083015184820360608601526110c38282610ff3565b91505060808301516110d8608086018261105e565b508091505092915050565b60006110ef838361106d565b905092915050565b6000602082019050919050565b600061110f82610f64565b6111198185610f6f565b93508360208202850161112b85610f7a565b8060005b85811015611167578484038952815161114885826110e3565b9450611153836110f7565b925060208a0199505060018101905061112f565b50829750879550505050505092915050565b600060208201905081810360008301526111938184611104565b905092915050565b600080fd5b600080fd5b600080fd5b60008083601f8401126111c0576111bf61119b565b5b8235905067ffffffffffffffff8111156111dd576111dc6111a0565b5b6020830191508360018202830111156111f9576111f86111a5565b5b9250929050565b60008083601f8401126112165761121561119b565b5b8235905067ffffffffffffffff811115611233576112326111a0565b5b60208301915083600182028301111561124f5761124e6111a5565b5b9250929050565b600080600080604085870312156112705761126f610ecd565b5b600085013567ffffffffffffffff81111561128e5761128d610ed2565b5b61129a878288016111aa565b9450945050602085013567ffffffffffffffff8111156112bd576112bc610ed2565b5b6112c987828801611200565b925092505092959194509250565b7f4e487b7100000000000000000000000000000000000000000000000000000000600052602260045260246000fd5b6000600282049050600182168061131e57607f821691505b60208210811415611332576113316112d7565b5b50919050565b7f4e487b7100000000000000000000000000000000000000000000000000000000600052601160045260246000fd5b600061137282610ed7565b91507fffffffffffffffffffffffffffffffffffffffffffffffffffffffffffffffff8214156113a5576113a4611338565b5b600182019050919050565b60006113bb82610ed7565b91506113c683610ed7565b9250828210156113d9576113d8611338565b5b828203905092915050565b7f4e487b7100000000000000000000000000000000000000000000000000000000600052603260045260246000fd5b600081905092915050565b82818337600083830152505050565b60006114398385611413565b935061144683858461141e565b82840190509392505050565b600061145f82848661142d565b91508190509392505050565b6000819050919050565b61147e8161146b565b82525050565b61148d8161104c565b82525050565b60006060820190506114a86000830186611475565b6114b56020830185611484565b6114c26040830184611475565b949350505050565b600081905092915050565b7f1901000000000000000000000000000000000000000000000000000000000000600082015250565b600061150b6002836114ca565b9150611516826114d5565b600282019050919050565b6000819050919050565b61153c6115378261146b565b611521565b82525050565b600061154d826114fe565b9150611559828561152b565b602082019150611569828461152b565b6020820191508190509392505050565b7f4e487b7100000000000000000000000000000000000000000000000000000000600052602160045260246000fd5b600082825260208201905092915050565b7f45434453413a20696e76616c6964207369676e61747572650000000000000000600082015250565b60006115ef6018836115a8565b91506115fa826115b9565b602082019050919050565b6000602082019050818103600083015261161e816115e2565b9050919050565b7f45434453413a20696e76616c6964207369676e6174757265206c656e67746800600082015250565b600061165b601f836115a8565b915061166682611625565b602082019050919050565b6000602082019050818103600083015261168a8161164e565b9050919050565b7f45434453413a20696e76616c6964207369676e6174757265202773272076616c60008201527f7565000000000000000000000000000000000000000000000000000000000000602082015250565b60006116ed6022836115a8565b91506116f882611691565b604082019050919050565b6000602082019050818103600083015261171c816116e0565b9050919050565b7f45434453413a20696e76616c6964207369676e6174757265202776272076616c60008201527f7565000000000000000000000000000000000000000000000000000000000000602082015250565b600061177f6022836115a8565b915061178a82611723565b604082019050919050565b600060208201905081810360008301526117ae81611772565b9050919050565b600060a0820190506117ca6000830188611475565b6117d76020830187611475565b6117e46040830186611475565b6117f16060830185610f3a565b6117fe6080830184611484565b9695505050505050565b600060ff82169050919050565b61181e81611808565b82525050565b60006080820190506118396000830187611475565b6118466020830186611815565b6118536040830185611475565b6118606060830184611475565b95945050505050565b600061187482610ed7565b915061187f83610ed7565b9250827fffffffffffffffffffffffffffffffffffffffffffffffffffffffffffffffff038211156118b4576118b3611338565b5b82820190509291505056fea2646970667358221220c80502bfabe90e020db39fa50118b2d8e1ee09444abf667c689988d0e22fc39c64736f6c63430008090033",
  "linkReferences": {},
  "deployedLinkReferences": {}
}